:100000000C9458000C9480000C9480000C94800098
:100010000C9480000C9480000C9480000C94800060
:100020000C9480000C9480000C9480000C94800050
:100030000C9480000C9480000C9480000C94800040
:100040000C94CE020C9480000C949C020C947602CA
:100050000C9480000C9480000C9480000C94800020
:100060000C9480000C948000000000002500280003
:100070002B00040404040404040402020202020229
:10008000030303030303010204081020408001025C
:1000900004081020010204081020000000080002DB
:1000A00001000003040700000000000000005104EC
:1000B00011241FBECFEFD8E0DEBFCDBF11E0A0E01E
:1000C000B1E0E6E1F9E002C005900D92A031B10780
:1000D000D9F721E0A0E1B1E001C01D92AB3BB2072E
:1000E000E1F710E0C8E5D0E004C02197FE010E94CE
:1000F0007E04C735D107C9F70E9418030C94890400
:100100000C940000E3EAF0E02491EFE8F0E0949131
:10011000EBE7F0E0E491EE2309F43BC0222339F150
:10012000233091F038F42130A9F0223001F524B5C4
:100130002F7D12C0273091F02830A1F02430B9F47F
:10014000209180002F7D03C0209180002F77209385
:1001500080000DC024B52F7724BD09C02091B000C8
:100160002F7703C02091B0002F7D2093B000F0E0E6
:10017000EE0FFF1FE859FF4FA591B4912FB7F894E8
:10018000EC91811103C090959E2301C09E2B9C93FE
:100190002FBF0895CF92DF92EF92FF920F931F939C
:1001A000CF93DF936C017A018B01C0E0D0E0CE15D4
:1001B000DF0589F0D8016D918D01D601ED91FC919B
:1001C0000190F081E02DC6010995892B11F47E0183
:1001D00002C02196ECCFC701DF91CF911F910F9103
:1001E000FF90EF90DF90CF900895FC01918D828D6C
:1001F000981761F0828DDF01A80FB11D5D968C917B
:10020000928D9F5F9F73928F90E008958FEF9FEF85
:100210000895FC01918D828D981731F0828DE80F41
:10022000F11D858D90E008958FEF9FEF0895FC01FB
:10023000918D228D892F90E0805C9F4F821B9109C8
:100240008F739927089589E191E00E94170121E0B9
:10025000892B09F420E0822F0895FC01848DDF01B1
:10026000A80FB11DA35ABF4F2C91848D90E0019629
:100270008F739927848FA689B7892C93A089B18918
:100280008C9180648C93938D848D981306C0028822
:10029000F389E02D80818F7D80830895EF92FF9216
:1002A0000F931F93CF93DF93EC0181E0888F9B8D99
:1002B0008C8D981305C0E889F989808185FD24C05B
:1002C000F62E0B8D10E00F5F1F4F0F731127E02EDE
:1002D0008C8DE8120CC00FB607FCFACFE889F989BB
:1002E000808185FFF5CFCE010E942D01F1CF8B8D4E
:1002F000FE01E80FF11DE35AFF4FF0820B8FEA89F0
:10030000FB898081806207C0EE89FF896083E8896C
:10031000F98980818064808381E090E0DF91CF91D2
:100320001F910F91FF90EF900895CF93DF93EC0111
:10033000888D8823C9F0EA89FB89808185FD05C005
:10034000A889B9898C9186FD0FC00FB607FCF5CF3F
:10035000808185FFF2CFA889B9898C9185FFEDCF87
:10036000CE010E942D01E7CFDF91CF91089580E06B
:1003700090E0892B29F00E94230181110C94000048
:1003800008953FB7F8948091150190911601A091BE
:100390001701B091180126B5A89B05C02F3F19F091
:1003A0000196A11DB11D3FBFBA2FA92F982F8827F5
:1003B000820F911DA11DB11DBC01CD0142E0660F50
:1003C000771F881F991F4A95D1F70895FC01208156
:1003D0002EBDDC0131969C01260F371FE217F30773
:1003E00041F051910DB407FEFDCF4EB55EBD4D936A
:1003F000F5CF61507109FC01E60FF71F0DB407FE40
:10040000FDCF8EB58083089508958CBD9DBD089560
:100410000F931F93CF93DF931F92CDB7DEB78C015D
:1004200082E591E069830E94050280E00E948200DB
:10043000698170E06115710519F0C8010E94E6013B
:1004400081E00E94820083EC90E00197F1F70F9029
:10045000DF91CF911F910F910895CF93DF9300D03B
:1004600000D0CDB7DEB719821A821B821C829EE1B2
:1004700099838A836B8364E0CE0101960E9408020F
:100480000F900F900F900F90DF91CF9108951F93D1
:10049000CF93DF9300D0CDB7DEB79AE099838A83FC
:1004A00062E0CE0101960E94080282E591E00E947E
:1004B000050280E00E9482008FEF8EBD00000DB427
:1004C00007FEFDCF1EB581E00E94820083EC90E024
:1004D0000197F1F781E0111101C080E00F900F90BA
:1004E000DF91CF911F9108950E9484041F920F9273
:1004F0000FB60F9211242F933F934F935F936F93F7
:100500007F938F939F93AF93BF93EF93FF9389E173
:1005100091E00E942D01FF91EF91BF91AF919F91CA
:100520008F917F916F915F914F913F912F910F909C
:100530000FBE0F901F9018951F920F920FB60F923B
:1005400011242F938F939F93EF93FF93E0912901B1
:10055000F0912A018081E0912F01F091300182FD1C
:1005600012C09081809132018F5F8F73209133018F
:10057000821751F0E0913201F0E0E75EFE4F958F77
:100580008093320101C08081FF91EF919F918F9103
:100590002F910F900FBE0F901F9018951F920F92E2
:1005A0000FB60F9211242F933F938F939F93AF9386
:1005B000BF938091110190911201A0911301B0910C
:1005C00014013091100123E0230F2D3720F4019600
:1005D000A11DB11D05C026E8230F0296A11DB11D66
:1005E000209310018093110190931201A0931301A5
:1005F000B09314018091150190911601A0911701FB
:10060000B09118010196A11DB11D80931501909321
:100610001601A0931701B0931801BF91AF919F915C
:100620008F913F912F910F900FBE0F901F901895B3
:10063000CF93DF9300D000D01F92CDB7DEB7789470
:1006400084B5826084BD84B5816084BD85B58260D7
:1006500085BD85B5816085BD80916E008160809388
:100660006E001092810080918100826080938100F1
:100670008091810081608093810080918000816001
:10068000809380008091B10084608093B10080915C
:10069000B00081608093B00080917A008460809384
:1006A0007A0080917A00826080937A0080917A004B
:1006B000816080937A0080917A00806880937A00CC
:1006C0001092C100E0912901F0912A0182E080831B
:1006D000E0912501F09126011082E0912701F0912F
:1006E000280180E1808310923101E0912D01F09189
:1006F0002E0186E08083E0912B01F0912C01808116
:1007000080618083E0912B01F0912C0180818860D1
:100710008083E0912B01F0912C018081806880839F
:10072000E0912B01F0912C0180818F7D80838E01DF
:100730000F5F1F4F85E0F80111928A95E9F78DE16F
:1007400089838FEF8B838C838D8365E0C8010E9442
:10075000080261E082E00E942D0261E083E00E94D5
:100760002D0262E084E00E942D0261E085E00E949B
:100770002D0264E086E00E942D02FF24FA942BE112
:10078000E22E33ECC32ED12C44E0342E50E2252E41
:10079000F982FA8280E590E00E94050280E00E94E2
:1007A0008200EEBC00000DB407FEFDCF8EB581E0E7
:1007B0000E948200C6010197F1F782E591E00E9454
:1007C000050280E00E94820062E070E0C8010E94A1
:1007D000E60181E00E948200C6010197F1F72A81BB
:1007E00030E0322F22278981282B3093BA012093C1
:1007F000B90133273093B8012093B701398281E0E2
:100800008A832B822C8364E0C8010E9408020E9424
:10081000C1014B015C019AE0492E512C612C712CD5
:100820000E94C101DC01CB0188199909AA09BB0901
:10083000883E9340A105B10558F0F1E04F1A5108E8
:100840006108710828EE820E23E0921EA11CB11CE3
:10085000411451046104710419F782E00E944702B7
:1008600083E00E94470284E00E94470285E00E94E4
:1008700047021092B6017090B60129E0271570F07A
:1008800019821A821B82F7E0F9837B8263E0C80138
:100890000E94080273947092B601EDCF0E94B701D6
:1008A00077CFE9E1F1E01382128288EE93E0A0E0D5
:1008B000B0E084839583A683B78384E091E091833D
:1008C000808385EC90E09587848784EC90E097871F
:1008D000868780EC90E0918B808B81EC90E0938B0D
:1008E000828B82EC90E0958B848B86EC90E0978BEA
:1008F000868B118E128E138E148E0895EE0FFF1FAD
:100900000590F491E02D099481E090E0F8940C9426
:060910008904F894FFCFFA
:10091600000000004E01CA001701F500090195010B
:107E0000112484B714BE81FFF0D085E080938100F7
:107E100082E08093C00088E18093C10086E0809377
:107E2000C20080E18093C4008EE0C9D0259A86E02C
:107E300020E33CEF91E0309385002093840096BBD3
:107E4000B09BFECF1D9AA8958150A9F7CC24DD24C4
:107E500088248394B5E0AB2EA1E19A2EF3E0BF2EE7
:107E6000A2D0813461F49FD0082FAFD0023811F036
:107E7000013811F484E001C083E08DD089C08234E0
:107E800011F484E103C0853419F485E0A6D080C0E4
:107E9000853579F488D0E82EFF2485D0082F10E0AE
:107EA000102F00270E291F29000F111F8ED06801E7
:107EB0006FC0863521F484E090D080E0DECF843638
:107EC00009F040C070D06FD0082F6DD080E0C81688
:107ED00080E7D80618F4F601B7BEE895C0E0D1E017
:107EE00062D089930C17E1F7F0E0CF16F0E7DF06D8
:107EF00018F0F601B7BEE89568D007B600FCFDCFD4
:107F0000A601A0E0B1E02C9130E011968C91119780
:107F100090E0982F8827822B932B1296FA010C0160
:107F200087BEE89511244E5F5F4FF1E0A038BF0790
:107F300051F7F601A7BEE89507B600FCFDCF97BE46
:107F4000E89526C08437B1F42ED02DD0F82E2BD052
:107F50003CD0F601EF2C8F010F5F1F4F84911BD097
:107F6000EA94F801C1F70894C11CD11CFA94CF0C13
:107F7000D11C0EC0853739F428D08EE10CD085E9AC
:107F80000AD08FE07ACF813511F488E018D01DD067
:107F900080E101D065CF982F8091C00085FFFCCF94
:107FA0009093C60008958091C00087FFFCCF809118
:107FB000C00084FD01C0A8958091C6000895E0E648
:107FC000F0E098E1908380830895EDDF803219F02E
:107FD00088E0F5DFFFCF84E1DECF1F93182FE3DFCA
:107FE0001150E9F7F2DF1F91089580E0E8DFEE27F6
:047FF000FF270994CA
:027FFE00040479
:0400000300007E007B
:00000001FF
